:020000040800F2
:1000000060070020290200081F1C000833020008B6
:100010001D1C00081F040008192200080000000031
:10002000000000000000000000000000411C00086B
:100030002104000800000000211C0008431C0008E7
:10004000430200084302000843020008430200087C
:10005000430200084302000843020008430200086C
:10006000430200084302000843020008430200085C
:10007000430200084302000843020008430200084C
:10008000430200084302000843020008430200083C
:10009000430200084302000843020008430200082C
:1000A000430200084302000843020008430200081C
:1000B000430200084302000843020008430200080C
:1000C00043020008430200084302000843020008FC
:1000D00043020008430200084302000843020008EC
:1000E00043020008430200084302000843020008DC
:1000F00043020008430200084302000843020008CC
:10010000430200084302000843020008251C0008BF
:10011000E11F0008430200084302000843020008F0
:10012000430200084302000843020008430200089B
:100130004302000800000000000000004302000825
:10014000430200084302000843020008430200087B
:10015000430200084302000843020008430200086B
:10016000430200084302000843020008430200085B
:1001700043020008430200080000000000000000E5
:10018000430200084302000800F002F800F03CF8C7
:100190000AA090E8000C82448344AAF10107DA45E2
:1001A00001D100F031F8AFF2090EBAE80F0013F0F8
:1001B000010F18BFFB1A43F00103184794210000F8
:1001C000B4210000103A24BF78C878C1FAD8520789
:1001D00024BF30C830C144BF04680C6070470000C1
:1001E0000023002400250026103A28BF78C1FBD840
:1001F000520728BF30C148BF0B6070471FB502F0DF
:1002000095F81FBD10B510BD00F0CFF81146FFF7EF
:10021000F5FF02F013F800F0EDF803B4FFF7F2FF7A
:1002200003BC00F0F5F80000094880470948004782
:10023000FEE7FEE7FEE7FEE7FEE7FEE7FEE7FEE796
:10024000FEE7FEE704480549054A064B70470000F3
:10025000DD1C000889010008600100206007002003
:10026000600300206003002053EA020C00F0698064
:100270002DE9F04B4FF00006002B1FBFB3FA83F5BA
:1002800003FA05F424FA05F65E4012BF1643B2FAEB
:1002900082F502FA05F4C5F120051EBF22FA05FC1D
:1002A00044EA0C04203556EA044C4FEA144418BFC3
:1002B000641C4FF000084FF00009904271EB030CF2
:1002C00039D3002919BFB1FA81F701FA07F6B0FA5C
:1002D00080F700FA07F6C7F120071EBF20FA07FCD7
:1002E00046EA0C062037B6FBF4FCA7EB0507103FE7
:1002F00007F01F0BCBF120060CFA0BFB2CFA06F6CD
:1003000044BFB3460026202FA4BF5E464FF0000B2B
:100310005BEA060C08BF4FF0010B19EB0B09ABFBB6
:10032000027C48EB0608C01B06FB02CC0BFB03CC8F
:1003300071EB0C01C1E70B46024641464846BDE859
:10034000F08B13B54FF000004FF00001AFF30080C9
:10035000BDE81C4070474FF0000200B513469446BC
:100360009646203922BFA0E80C50A0E80C50B1F10D
:100370002001BFF4F7AF090728BFA0E80C5048BF21
:100380000CC05DF804EB890028BF40F8042B08BFBF
:10039000704748BF20F8022B11F0804F18BF00F8BB
:1003A000012B7047704770477047754600F02CF876
:1003B000AE4605006946534620F00700854618B052
:1003C00020B5FFF73FFFBDE820404FF000064FF09B
:1003D00000074FF000084FF0000B21F00701AC467A
:1003E000ACE8C009ACE8C009ACE8C009ACE8C00999
:1003F0008D46704710B50446AFF300802046BDE837
:100400001040FFF70ABF000000487047FC000020C2
:1004100001491820ABBEFEE7260002007047FEE748
:10042000704772B6FEE72DE9F0410446876D00F093
:1004300065F9064694F835000025022806D080208C
:10044000606584F834500120BDE8F08120680168BF
:1004500021F0160101602068416921F080014161AD
:10046000206C08B9A06C20B12068016821F0080157
:1004700001602068016821F0010101600CE000F0DA
:100480003DF9801B052807D920206065032084F8EA
:10049000350084F83450D7E720680068C007EED1F3
:1004A00094F85C103F208840B860012084F8350043
:1004B00084F834500020C7E790F83510022903D0A3
:1004C0008021416501207047052180F835100068C2
:1004D000016821F0010101600020704770B50446F9
:1004E00000F00CF90546601C02D004480078044472
:1004F00000F004F9401BA042FAD370BD04000020B4
:100500002DE9F84FDFF8BCA10022012503264FF0AA
:100510000F090AF1040BAAF1040E00BF0B6805FADB
:1005200002F42340A34270D10F7907F00307012F93
:1005300001D0022F16D187684FEA420806FA08FC5C
:1005400027EA0C07D1F80CC00CFA08FC4CEA070C9F
:10055000C0F808C04768A7430C79C4F3001494405E
:100560003C4344600C79E443A4070AD0C4684FEAD2
:10057000420C06FA0CF7BC438F6807FA0CF72743C6
:10058000C7600C7904F00304022C12D1D40800EBEC
:10059000840CDCF820405707FF0E09FA07F824EA1C
:1005A0000804D1F8108008FA07F848EA0408CCF8E3
:1005B000208004684FEA420C06FA0CF7BC430F791E
:1005C00007F0030707FA0CF7274307604C6814F499
:1005D000403F70D03C4C276847F480472760246830
:1005E00022F0030704F480440094384C07EB040C19
:1005F000DCF8084897074FEA177809FA08F7BC4370
:10060000334FB84202D1002724E054E0314FB842C2
:1006100001D101271EE0304FB84201D1022719E075
:100620002E4FB84201D1032714E02D4FB84201D11B
:1006300004270FE02B4FB84201D105270AE02A4FCB
:10064000B84201D1062705E0284FB84201D107275B
:1006500000E0082707FA08F72743CCF80878DAF80B
:1006600000405746D1F804C09C435FEACC2C00D52B
:100670001C433C60DBF800405F46D1F804C09C435B
:100680005FEA8C2C00D51C433C60DEF800407746C6
:10069000D1F804C09C435FEA8C3C00D51C433C600D
:1006A000084F083F3C68D1F804C09C435FEACC3C4B
:1006B00000D51C433C60521C102AFFF42FAFBDE84C
:1006C000F88F0000083C01404438024000300140EF
:1006D000000002400004024000080240000C0240FA
:1006E000001002400014024000180240001C0240AA
:1006F0000AB1816170470904FBE700000148806886
:10070000704700000400002002488168027811440C
:1007100081607047040000200B4810B5016841F467
:1007200000710160016841F480610160016841F479
:1007300080710160032000F06FF8002000F006F8DF
:1007400000F024F8002010BD003C024070B50D4DB3
:1007500004464FF47A712878B1FBF0F00A49096831
:10076000B1FBF0F000F026FC48B9102C07D20022B3
:100770002146501E00F030F800206C6070BD012052
:1007800070BD000004000020100000200A4808B5D9
:10079000016841F480410160006800F480400090ED
:1007A0000548001F016841F080510160006800F0B9
:1007B0008050009008BD000044380240002809DB4A
:1007C00000F01F02012191404009800000F1E0206B
:1007D000C0F8001170470000F0B40E4B1B680C46C7
:1007E000C3F30223C3F10705042D00D90425191D05
:1007F000072901D2002300E0DB1E012606FA05F1DD
:10080000491E214099409E40761E16403143F0BC5F
:1008100001F003BD0CED00E0064900F00702086896
:100820004FF6FF03184040EA0220034A10430860D5
:10083000704700000CED00E00000FA052DE9F047DC
:100840000E46050065D0DFF81481D8F80000F7B235
:1008500000F00700B04207D288F80070D8F8000016
:1008600000F00700B04254D128683D4C810712D5F2
:10087000400703D5206840F4E05020602878000746
:1008800003D5206840F4604020602068A96820F00B
:10089000F000084320602878C0072DD030496868F0
:1008A0000839012812D0022813D0032811D0096872
:1008B000890700292DDA216821F003010143216015
:1008C000FFF71CFF814641F2883A0EE00968890370
:1008D000EFE709688901ECE7FFF710FFA0EB0901DA
:1008E000514502D90320BDE8F0872068696800F00F
:1008F0000C00B0EB810FEFD1D8F80010404601F0AA
:100900000701B14207D90770006800F00700B04244
:1009100001D00120E7E72878400705D52068E9687D
:1009200020F4E050084320602878000706D52068AE
:10093000296920F4604040EAC100206000F038F8E6
:100940002168084AC1F30311515CC8400649086098
:1009500006480068FFF7FAFE0020C4E7003C0240AA
:10096000083802403623000810000020080000204C
:100970000448054900680968044AC1F38221515CB2
:10098000C840704710000020083802404623000885
:100990000448054900680968044AC1F34231515CC2
:1009A000C840704710000020083802404623000865
:1009B000154810B5006810F00C02144813D041100F
:1009C000042A0FD0082A0ED10F4C241F2268236856
:1009D00002F03F025B0207D52068C0F38810A0FB3D
:1009E000010106E0084610BD2168C1F38811A1FB92
:1009F00000010023FFF738FC2168C1F30141491CC5
:100A00004900B0FBF1F010BD083802400024F400AA
:100A10002DE9F84F04006ED02078DFF84C93C00722
:100A2000A9F104054AD009F104000168C1F381016C
:100A3000012908D00068C0F3810002280AD1D9F842
:100A40000000400206D52868800337D5606800287A
:100A5000E1D033E06068B0F5803F10D0B0F5A02F52
:100A6000286810D020F480302860286820F4802086
:100A700028606068A8B1FFF741FE06460DE02868CF
:100A800040F48030F4E740F480202860F7E700BFAE
:100A9000FFF734FE801B642873D828688003F7D5DD
:100AA0000CE0FFF72BFE064605E000BFFFF726FE31
:100AB000801B6428F0D828688003F7D42078DFF8FA
:100AC000AC8280074FF0000A3ED5A748001D0168A0
:100AD00011F00C0F08D00068C0F3810002280BD180
:100AE000D9F80000400207D42868800716D5E068CE
:100AF000012800D112E033E1E068B8B10120C8F864
:100B00000000FFF7FBFD064605E000BFFFF7F6FD1E
:100B1000801B0228C0D828688007F7D5286821697B
:100B200020F0F80040EAC10028600DE0C8F800A0FD
:100B3000FFF7E4FD064604E0FFF7E0FD801B022816
:100B40001FD828688007F7D42078000722D5864F61
:100B500087486169703771B101210160FFF7CEFDEF
:100B6000064604E0FFF7CAFD801B022809D8386852
:100B70008007F7D50EE0C0F800A0FFF7BFFD0646DE
:100B800005E082E0FFF7BAFD801B02287DD83868B7
:100B90008007F7D42078400768D5DFF8CCB100276C
:100BA0000BF13C0BDBF80000C0000BD4DBF80010AD
:100BB00041F08051CBF80010DBF80000012700F075
:100BC000805000906B4E3068C00510D4306840F4FF
:100BD00080703060FFF792FD009005E0FFF78EFD1A
:100BE0000099401A022850D83068C005F6D55E4EEC
:100BF000A0686C3601280FD00528306810D020F08E
:100C000001003060306820F004003060A068B8B1A6
:100C1000FFF774FD00900FE0306840F00100F4E74A
:100C200040F004003060F7E7FFF768FD0099411AD3
:100C300041F28830814266D830688007F4D50EE0F2
:100C4000FFF75CFD009007E0FFF758FD0099411A9F
:100C500041F28830814256D830688007F4D42FB1F1
:100C6000DBF8001021F08051CBF80010A069C8B368
:100C70003D49091D0968C1F3810102294AD00228B2
:100C8000504607D0C8F8600000E03CE0FFF736FDB2
:100C900004463BE04746C8F86000FFF72FFD0646D4
:100CA00005E000BFFFF72AFD801B02282BD828682B
:100CB0008001F7D4D4E907010843A16A2E4A490804
:100CC00002EB0141626A41EA8211084394F82C1058
:100CD00040EA0161C9F8001001203866FFF70EFDF7
:100CE000044606E03EE000BFFFF708FD001B0228B7
:100CF00009D828688001F7D534E000BFFFF7FEFC73
:100D0000001B022802D90320BDE8F88F2868800163
:100D1000F4D427E00128F7D0D9F80000E26900F404
:100D2000800191421CD1226A00F03F01914217D10B
:100D300047F6C071626A0140B1EB821F10D1A26A0E
:100D40004FF0FF3300F4403103EB5202B1EB024F9E
:100D500006D194F82C1000F07060B0EB016F01D058
:100D60000120D1E70020CFE70438024000004742CD
:100D7000800E4742007000400000FFFF70470000F7
:100D800038B5016804464A688868C043430606D5FA
:100D9000C30704D1D3435B0601D4216C05E083076C
:100DA00008D4D3431B0605D4616C01B02046BDE8CE
:100DB00030400847830603D5430601D5C30551D407
:100DC000D3439B064ED443060AD494F85130032BE8
:100DD00049D0636D43F004036365CB688B6800936F
:100DE000830609D4636D43F0010363658B68009348
:100DF0000B6823F040030B60C00506D4606D40F023
:100E000008006065206880680090606D002829D027
:100E10002068416821F0E0014160012084F8510020
:100E2000900701D4D00722D02068416821F0030147
:100E30004160114DE06C40B10565E06CFFF73CFB93
:100E400018B1606D40F040006065A06C002809D0CA
:100E50000565A06CFFF730FB002803D0606D40F003
:100E60004000606538BDC8688868009038BD20467D
:100E7000FFF784FF38BD0000311C000870B5040086
:100E800009D0606A002540B125616561A56294F8CA
:100E9000510040B10CE0012070BD6068B0F5827F68
:100EA000F4D0E561F2E784F85050204600F044F8B1
:100EB000022084F851002068016821F0400101609F
:100EC000A088218900F4827001F404410843A189BB
:100ED00001F400610843217C01F002010843217DF7
:100EE00001F001010843218B01F400710843217FC7
:100EF00001F03801084394F8201001F08001084304
:100F0000218D01F40051084321680860A069042183
:100F100001EA104094F8241001F010010843216800
:100F200048602068C16921F40061C16165650120E4
:100F300084F85100002070BD10B586B0044614211D
:100F40006846FFF708FA18492068884229D11748EF
:100F50000021026842F400420260006800F4004090
:100F6000059012481038026842F0040202600068DE
:100F700000F0040005904FF4E05000900220CDE90D
:100F80000101032003900620049069460848FFF7FA
:100F9000B7FA002211463320FFF71EFC3320FFF77B
:100FA0000DFC06B010BD0000003C0040403802407F
:100FB0000008024010B5401EB0F1807F01D301202F
:100FC00010BD4FF0E02460610F21601701F025F99A
:100FD0000020A06107202061002010BD10B590F80E
:100FE0003C20012A22D0012280F83C20CA688C686B
:100FF00022F4407222434C6822F4806222430C683F
:1010000022F4006222430C6922F4805222434C698C
:1010100022F400522243C969002322F480420A4389
:1010200001684A6480F83C30002010BD022010BDE9
:1010300070B590F83C20012A32D0012480F83C4061
:10104000022280F83D2003685A689D6822F07006ED
:101050000A6832435A60134B02689A4214D0B2F1C4
:10106000804F11D0104B9A420ED0104B9A420BD0A9
:101070000F4B9A4208D00F4B9A4205D00E4B9A4222
:1010800002D00E4B9A4204D1496825F080031943DF
:10109000916080F83D40002180F83C10084670BD0A
:1010A000022070BD00000140000400400008004024
:1010B000000C0040000401400040014000180040C6
:1010C00010B50446022249B104290ED0082913D0D4
:1010D00094F84500012816D0012010BD94F8420074
:1010E0000128F9D184F842200FE094F84300012848
:1010F000F2D184F8432008E094F844000128EBD1B1
:1011000084F8442001E084F845200422206800F09F
:1011100062FE2068416C41F400414164114920683D
:10112000884214D0B0F1804F11D00F4988420ED0C0
:101130000E4988420BD00E49884208D00D4988429A
:1011400005D00D49884202D00C49884204D18168FB
:1011500001F00701062903D0016841F00101016097
:10116000002010BD000001400004004000080040C5
:10117000000C004000040140004001400018004005
:1011800010B5040003D094F83D0010B107E0012031
:1011900010BD002084F83C00204600F01FF802201B
:1011A00084F83D00211D206800F0A0FD012084F896
:1011B000460084F83E0084F83F0084F8400084F83C
:1011C000410084F8420084F8430084F8440084F825
:1011D000450084F83D00002010BD000008B50068FF
:1011E0000649884208D10648016841F001010160C2
:1011F000006800F00100009008BD00000000014000
:101200004438024090F83D10012901D00120704778
:10121000022180F83D1000681149884214D0B0F1D5
:10122000804F11D00F4988420ED00F4988420BD011
:101230000E49884208D00E49884205D00D4988429F
:1012400002D00D49884204D1816801F007010629C6
:1012500003D0016841F001010160002070470000E7
:10126000000001400004004000080040000C004065
:1012700000040140004001400018004070B50446E1
:1012800090F83C000025012817D0012684F83C6026
:10129000022084F83D002068826822F0770222F460
:1012A0007F4282600868502838D00DDC20284FD05B
:1012B00005DC90B3102811D14AE0022070BD30281F
:1012C00046D040280AD13BE060282FD070280DD0AE
:1012D000B0F5805F03D0B0F5005F12D0012584F82F
:1012E0003D60002084F83C00284670BDCB68D1E901
:1012F0000121206800F07CFD2068816841F07701C1
:1013000009E0CB68D1E90121206800F071FD206877
:10131000816841F480418160E1E719E0CA68496869
:10132000206800F039FE5021206806E0CA6849684C
:10133000206800F042FE6021206800F063FDCEE7E7
:10134000CA684968206800F027FE40212068F4E759
:10135000226801461046F0E770B586B004461421B5
:101360006846FEF7F8FF18492068884229D11748D7
:101370000024016841F002010160016801F00201EE
:101380000591016841F0010101600068022500F04B
:10139000010005904FF460400090CDE90154012612
:1013A000CDE9034669460A48FFF7AAF84FF4E06022
:1013B0000090CDE90154CDE9034669460548FFF7A1
:1013C0009FF806B070BD00000000014030380240B8
:1013D000000402400000024070B5044690F83C0052
:1013E000002501280FD0012084F83C006AB1042AAE
:1013F0000FD0082A11D00C2A13D00125002084F820
:101400003C00284670BD022070BD206800F002FD3F
:10141000F4E7206800F02EFDF0E7206800F060FDA2
:10142000ECE7206800F090FDE8E710B5040003D079
:1014300094F83D0010B107E0012010BD002084F8B1
:101440003C00204600F01EF8022084F83D00211DDB
:10145000206800F04BFC012084F8460084F83E0030
:1014600084F83F0084F8400084F8410084F842008A
:1014700084F8430084F8440084F8450084F83D0073
:10148000002010BD704770B5044690F83C0000265F
:101490000D4601280FD0012084F83C006AB1042ACF
:1014A0001DD0082A2FD00C2A3FD00126002084F816
:1014B0003C00304670BD022070BD206800F0AAFCE0
:1014C0002068816941F0080181612068816921F00B
:1014D00004018161206881692A69114311E0206853
:1014E00000F0C8FC2068816941F4006181612068D6
:1014F000816921F480618161206881692A6941EAFA
:1015000002218161D2E7206800F0EAFC2068C1690D
:1015100041F00801C1612068C16921F00401C16185
:101520002068C1692A69114311E0206800F00CFDB0
:101530002068C16941F40061C1612068C16921F47A
:101540008061C1612068C1692A6941EA0221C161E3
:10155000ACE710B5040003D094F83D0010B107E0EB
:10156000012010BD002084F83C00204600F01EF849
:10157000022084F83D00211D206800F0B7FB012007
:1015800084F8460084F83E0084F83F0084F8400068
:1015900084F8410084F8420084F8430084F8440051
:1015A00084F8450084F83D00002010BD704700001D
:1015B00010B50446022249B104290ED0082913D0DF
:1015C00094F84100012816D0012010BD94F83E0087
:1015D0000128F9D184F83E200FE094F83F0001285B
:1015E000F2D184F83F2008E094F840000128EBD1C4
:1015F00084F8402001E084F841200122206800F0B6
:10160000DDFB16492068164A884201D0904203D17A
:10161000436C43F4004343642068884213D0B0F124
:10162000804F10D00F4988420DD00F4988420AD010
:101630000E49884207D0904205D00D49884202D019
:101640000C49884204D1816801F00701062903D0C2
:10165000016841F001010160002010BD000001405F
:10166000000401400004004000080040000C00405D
:10167000004001400018004070477047F8B501680D
:1016800004460868CA684B6910F00F0F4FF0000558
:1016900059D003F0010602F49077374365D0C107B3
:1016A00005D0D10503D5616C41F0010161644107AA
:1016B00005D5D90703D0616C41F00201616481074F
:1016C00005D5D90703D0616C41F0040161640107BD
:1016D00007D502F02001314303D0616C41F00801CD
:1016E0006164616C00293AD0800604D5900602D569
:1016F000204600F0A9FC20684069616CC0F38010AE
:10170000090700D460B3204600F077FC20684069E8
:10171000400621D52068143050E8001F21F0400118
:1017200040E80012002AF5D1E06BA8B172490165CA
:10173000E06BFEF7C1FE002811D0E06B016D01B037
:10174000BDE8F040084783060FD593060DD5204627
:10175000BDE8F84000F078BC2046FFF78EFFF8BDEA
:101760002046FFF78AFF6564F8BD266B2023012E13
:101770007ED1C6067CD5D6067AD508684868009022
:1017800048694FF0020640064DD5E26B106840688C
:101790004FF480770004000C3AD0A18D814237D9F4
:1017A000E085D069B8422DD020680C3050E8001F89
:1017B00021F4807140E80012002AF5D1206814302D
:1017C00050E8001F21F0010140E80012002AF5D185
:1017D0002068143050E8001F21F0400140E800125A
:1017E000002AF5D184F84230256320680C3050E897
:1017F000001F21F0100140E80012002AF5D1E06B33
:10180000FEF711FE6663A08DE18D401A81B206E0FD
:10181000A18D8142A8D1D069B842A5D16663204686
:10182000FFF72AFFF8BDA08DE18D401A81B2E08D4F
:101830000028F7D00029F5D020680C3050E8002FA0
:1018400022F4907240E80027002FF5D12068143070
:1018500050E8002F22F0010240E80027002FF5D1C8
:1018600084F84230256320680C3050E8002F00E0F7
:1018700006E022F0100240E80023002BF3D1CDE770
:1018800005062BD5150629D594F841002128C9D184
:10189000A068B0F5805F01D12069B0B1206A411C19
:1018A0002162216800784860E08C401E0004000C32
:1018B000E084B7D12068C16821F08001C160206850
:1018C000C16841F04001C160F8BD206A0088C0F3E2
:1018D00008004860206A801C2062E5E74006F3D5D6
:1018E0005006F1D5CA68204622F04002CA6084F84A
:1018F000413000F072F8F8BDED1F000870B504002B
:1019000004D094F84100002510B106E0012070BD1C
:1019100084F84050204600F023F8242084F8410049
:101920002068C16821F40051C160204600F0EEFB40
:101930002068016921F4904101612068416921F02A
:101940002A0141612068C16841F40051C1606564A9
:10195000202084F8410084F842006563002070BDB7
:1019600010B586B0044614216846FEF7F4FC17490A
:101970002068884227D116480021026842F40022DC
:101980000260006800F400200590114810380268D9
:1019900042F0010202600068022200F0010005909E
:1019A0000320CDE90210CDE9000208200490694629
:1019B0000848FEF7A5FD002211463420FEF70CFF73
:1019C0003420FEF7FBFE06B010BD0000004C0040C6
:1019D000403802400000024070477047F0B587B0C1
:1019E00014216846FEF7B7FC22480024016841F044
:1019F00080010160016801F080010591016841F0FA
:101A000001010160016801F001010591016841F0E7
:101A100004010160016801F004010591016841F0D1
:101A2000020101600068144F00F0020041F2080654
:101A30000590002231463846FEF75AFE4020032525
:101A4000CDE90005694602940C48FEF759FD2020B7
:101A5000CDE90005694602940948FEF751FD0120D1
:101A60000096CDE90104694638460394FEF748FD27
:101A700007B0F0BD303802400004024000000240D0
:101A800000080240114810B50F4901604FF48271FF
:101A9000416000214FF40062C0E902120122C0E956
:101AA0000412520282613022C0E907214162816240
:101AB0000A21C162FFF7E2F9002803D0BDE8104017
:101AC000FEF7AFBC10BD0000003C00401400002039
:101AD00010B596B000240F9410941194129413949E
:101AE0001C2168461494FEF736FC202107A8FEF757
:101AF00032FC3B483949C0E900146021816040F65E
:101B00003301C0E903140221C0E90514FFF738FBD3
:101B100008B1FEF786FC4FF480500F900FA93048B3
:101B2000FFF7ACFB08B1FEF77CFC2D48FFF711FD79
:101B300008B1FEF776FC2A48FFF777FC08B1FEF7FC
:101B400070FC2020CDE9130413A92548FFF770FA93
:101B500008B1FEF766FC7020CDE9000402940394FE
:101B600004940594002269461D480694FFF78BFCF7
:101B700008B1FEF756FC042269461948FFF783FCBA
:101B800008B1FEF74EFC082269461548FFF77BFCBA
:101B900008B1FEF746FC0C22694611480094FFF795
:101BA0001BFC08B1FEF73DFC4FF4006007904010AD
:101BB000CDE908041420CDE90A044FF400500C903C
:101BC00007A90E940648FFF709FA08B1FEF729FCA9
:101BD0000348FFF7C1FB16B010BD00000000014034
:101BE0006C0000200C4810B50A4901604FF4E13147
:101BF0004160002181600C22C160C0E90412816152
:101C0000C161FFF77BFE002803D0BDE81040FEF75E
:101C100008BC10BD004C0040B4000020FEE7FEE709
:101C2000704700000148FFF7ABB800001400002027
:101C300010B5806B0021C187C186FFF79FF810BDEA
:101C40007047FEF761BD000030B593B030216846A3
:101C5000FEF781FB14210CA8FEF77DFB1D48002533
:101C6000016841F080510160006800F080501190DF
:101C70001948016841F4804101600068022400F4C1
:101C8000804011900120039010200490009406944D
:101C90000820CDE90750A820CDE9090404200B90C5
:101CA0006846FEF7B5FE08B172B6FEE70CA90F2034
:101CB00081E831004FF4A0500F904FF48050109005
:101CC00005210CA8FEF7BAFD002801D072B6FEE788
:101CD00013B030BD40380240007000400248016837
:101CE00041F470010160704788ED00E0F0B50268D2
:101CF000274B284D284E294F294C4FF0804C9842B5
:101D000009D0604507D0A84205D0B04203D0B84200
:101D100001D0A04204D122F0700E4A6842EA0E02BD
:101D200098421BD0604519D0A84217D0B04215D0B8
:101D3000B84213D0A04211D01A4DA8420ED01A4D6D
:101D4000A8420BD0194DA84208D0194DA84205D081
:101D5000184DA84202D0184DA84203D122F4407574
:101D6000CA682A434D6922F080022A438D68C56201
:101D70000D688562984201D0A04201D109690163D2
:101D8000016841F004010160012141610260F0BD80
:101D9000000001400004004000080040000C00402A
:101DA000000401400040014000440140004801405F
:101DB00000180040001C00400020004010B501F059
:101DC0001F030121046A99408C430462016A9A400E
:101DD0001143016210BD10B501F00F030421046A24
:101DE00099408C430462016A9A401143016210BD1C
:101DF00010B5846842EA032224F47F440A43224354
:101E0000826010BD826822F070020A4342F007012E
:101E100081607047F0B5036A026A22F00102026233
:101E200042688469124E24F073050C682C4323F039
:101E300002058B682B430D4DA84201D0B04205D15D
:101E400023F00807CB683B4323F00403A84201D0EA
:101E5000B04205D14D6922F4407215438A692A4384
:101E600042608461496841630362F0BD0000014043
:101E700000040140F0B5026A036A23F01003036214
:101E8000436884690D6824F4E64444EA05248D68B7
:101E900022F0200242EA05120F4D104EA84201D056
:101EA000B04206D1CF6822F0800242EA071222F047
:101EB0004002A84201D0B04207D14D6923F44063EB
:101EC00043EA85038D6943EA850343608461496879
:101ED00081630262F0BD0000000001400004014087
:101EE000F0B5026A036A23F4807303624368C4692D
:101EF00022F4007224F073050C68124E2C438D6896
:101F000042EA05220E4DA84201D0B04206D1CF6868
:101F100022F4006242EA072222F48062A84201D041
:101F2000B04207D14D6923F4405343EA05138D694C
:101F300043EA05134360C4614968C1630262F0BDAE
:101F4000000001400004014030B5046A026A22F436
:101F5000805202624268C3690D6823F4E64343EA93
:101F600005238D6824F4005444EA0534084DA84242
:101F700002D0084DA84204D14D6922F4804242EAC1
:101F800085124260C36149680164046230BD00008B
:101F9000000001400004014010B5036A046A24F007
:101FA00001040462846924F0F00444EA021423F07A
:101FB0000A020A438461026210BD10B5036A046A12
:101FC00024F010040462846923F0A00324F4704414
:101FD00044EA023243EA01118261016210BD00004D
:101FE0000148FFF74BBB0000B400002010B5806B28
:101FF0000021C185FFF741FB10BD01680C3151E89C
:10200000002F22F4907241E80023002BF5D10168E3
:10201000143151E8002F22F0010241E80023002B87
:10202000F5D1016B012909D101680C3151E8002F6C
:1020300022F0100241E80023002BF5D1202180F886
:10204000421000210163704708B590F84210222920
:1020500001D0022008BD82684FF480539A4201D11A
:10206000016921B1816A9A421BD04AB10AE0026833
:10207000816A5268C2F308020A80816A891C08E0FA
:10208000026972B10268526802F07F020A70816AC6
:10209000491C8162C18D491E0904090CC18503D008
:1020A0001BE002685268F1E70168CA6822F020026A
:1020B000CA600168CA6822F48072CA6001684A690D
:1020C00022F001024A61202180F842100021416380
:1020D000026B012A03D0FFF77FFC002008BD0163DB
:1020E00001680C3151E8002F22F0100241E8002372
:1020F000002BF5D101680A68D20602D50A68496842
:102100000091818DFFF7B8FAE7E7000070B504464B
:1021100000680169E26821F44051114301612169BD
:10212000A068E26908436169114308432168CA68ED
:1021300049F20C639A430243CA6020684169A2696C
:1021400021F440711143416131492068884202D035
:102150003049884202D1FEF71BFC01E0FEF708FC83
:10216000E2690023192164253226B2F5004F626826
:1021700028D0A0FB0101930F9200FEF775F80146ED
:10218000B0FBF5F06FF01802504301EB800006EB56
:102190000010B0FBF5F000F0F002B1FBF5F002EB3F
:1021A0000012B1FBF5F06FF01803584301EB80000B
:1021B00006EB0010B0FBF5F000F00F0021681044B2
:1021C000886070BDA0FB010192185B41FEF74CF8DE
:1021D0000146B0FBF5F00201B1FBF5F06FF018031A
:1021E000584301EB800006EBC000B0FBF5F000F0B7
:1021F000F80002EB4002B1FBF5F0584301EB800020
:1022000006EBC000B0FBF5F000F00700D6E70000D9
:102210000010014000140140FEE70907090E0028E4
:1022200004DB00F1E02080F80014704700F00F009C
:1022300000F1E02080F8141D704700002DED028BA6
:10224000FEF76AFAFFF700FDFFF7C8FBFFF7CAFCCD
:10225000FFF73EFCFFF716FC012211032F48FEF7A3
:1022600047FA2F48FEF7CEFF00212D48FFF7A0F9CF
:1022700004212B48FFF79CF908212948FFF798F91A
:1022800000212748FEF71CFF04212548FEF718FF10
:1022900008212348FEF714FF214C002520684563E0
:1022A000206885632068C5630A20FEF717F91D4E74
:1022B0009FED1D8A216896ED000A20EE080ABDEE0A
:1022C000C00A10EE100A4863206885632068C56361
:1022D0000A20FEF703F92068456396ED000A21689D
:1022E00020EE080ABDEEC00A10EE100A88632068CE
:1022F000C5630A20FEF7F2F820684563206885630D
:1023000096ED000A216820EE080ABDEEC00A10EE24
:10231000100AC8630A20FEF7E1F8CBE70004024088
:102320006C00002000000020003003454FF040709A
:10233000E1EE100A704700000000000000000102FA
:10234000030406070809000000000102030400005E
:10235000702300080000002014000000C4010008E1
:1023600084230008140000204C070000E00100084E
:10237000CDCCCC3D010000001000000000000000AA
:042380000024F40041
:040000050800018965
:00000001FF
